:100000000A128A110E2F00308A000408840A82071F
:1000100000344C34593443344F34203453344F3447
:06002000463454340034A4
:100E1C0083010A128A11A42F02300A128A11462762
:100E2C000A128A1128300A128A1146270A128A11CC
:100E3C000C300A128A1146270A128A110800F40093
:100E4C00382F740884000A128A1103200A128A119E
:100E5C000A128A1175270A128A110130F3007308DD
:100E6C00F407382F740884000A128A1103200A121E
:100E7C008A110038031D432F442F272F452F0800BC
:100E8C00F2007208F03983120313880008118815D8
:100E9C002130F1007630F000F00B522FF10B522F75
:100EAC0064008312031388117208F00003300310DE
:100EBC00F00DFF3E031D5D2F0310700DF0398800FF
:100ECC00081188152130F1007630F000F00B6C2FF2
:100EDC00F10B6C2F64008312031388110800F200CD
:100EEC007208F03983120313880008158815213015
:100EFC00F1007630F000F00B812FF10B812F6400A4
:100F0C008312031388117208F00003300310F00DE4
:100F1C00FF3E031D8C2F0310700DF039880008154F
:100F2C0088152130F1007630F000F00B9B2FF10B7F
:100F3C009B2F64008312031388110800831603137C
:100F4C0088018312031388010A128A1112270A12CC
:100F5C008A1180300A128A1146270A128A1101302E
:100F6C000A128A1125270A128A11BC2FF801F901DD
:100F7C007908803AFF0080307F02031DC72F0A30AA
:100F8C007802031CCA2FCB2FCD2FBC2FBC2FC03007
:100F9C000A128A1146270A128A117808303E0A1260
:100FAC008A1175270A128A111A30F7005E30F60082
:100FBC008630F500F50BE02FF60BE02FF70BE02F4A
:100FCC0064000130F8070318F90A0030F9077908B2
:100FDC00803AFF0080307F02031DF62F0A30780222
:100FEC00031CF92FFA2FCD2FBC2FBC2FBC2F0A12AC
:040FFC008A1100282E
:02400E003A3F37
:00000001FF
